:100000000C9462000C948A000C948A000C948A0070
:100010000C948A000C948A000C948A000C948A0038
:100020000C948A000C948A000C948A000C948A0028
:100030000C948A000C948A000C948A000C948A0018
:100040000C9428050C948A000C94F6040C94D004AB
:100050000C948A000C948A000C948A000C948A00F8
:100060000C948A000C948A000000000024002700F1
:100070002A0000000000250028002B0000000000DE
:1000800023002600290004040404040404040202DA
:100090000202020203030303030301020408102007
:1000A0004080010204081020010204081020000012
:1000B0000008000201000003040700000000000027
:1000C0000000B70511241FBECFEFD8E0DEBFCDBFC3
:1000D00011E0A0E0B1E0E6EBF4E102C005900D9282
:1000E000AE33B107D9F722E0AEE3B1E001C01D9213
:1000F000A430B207E1F710E0C2E6D0E004C02197D7
:10010000FE010E94530AC136D107C9F70E940106B9
:100110000C94590A0C940000AF92BF92CF92DF92D8
:10012000EF92FF920F931F93CF93DF936C017B01AC
:100130008B01040F151FEB015E01AE18BF08C0173D
:10014000D10759F06991D601ED91FC910190F081B0
:10015000E02DC6010995892B79F7C501DF91CF9173
:100160001F910F91FF90EF90DF90CF90BF90AF90D5
:100170000895FC01538D448D252F30E0842F90E0AD
:10018000821B930B541710F0CF9608950197089592
:10019000FC01918D828D981761F0A28DAE0FBF2F5B
:1001A000B11D5D968C91928D9F5F9F73928F90E0B1
:1001B00008958FEF9FEF0895FC01918D828D981720
:1001C00031F0828DE80FF11D858D90E008958FEF5D
:1001D0009FEF0895FC01918D228D892F90E0805C26
:1001E0009F4F821B91098F73992708958FE491E0A7
:1001F0000E94EA0021E0892B09F420E0822F089573
:1002000080E090E0892B29F00E94F60081110C9487
:1002100000000895FC01A48DA80FB92FB11DA35AA9
:10022000BF4F2C91848D90E001968F739927848F16
:10023000A689B7892C93A089B1898C918370806439
:100240008C93938D848D981306C00288F389E02DDA
:1002500080818F7D80830895EF92FF920F931F938B
:10026000CF93DF93EC0181E0888F9B8D8C8D981369
:100270001AC0E889F989808185FF15C09FB7F89475
:10028000EE89FF896083E889F989808183708064C1
:1002900080839FBF81E090E0DF91CF911F910F910C
:1002A000FF90EF900895F62E0B8D10E00F5F1F4F1B
:1002B0000F731127E02E8C8D8E110CC00FB607FC2A
:1002C000FACFE889F989808185FFF5CFCE010E94B8
:1002D0000A01F1CFEB8DEC0FFD2FF11DE35AFF4F1B
:1002E000F0829FB7F8940B8FEA89FB898081806246
:1002F000CFCFCF93DF93EC01888D8823B9F0AA8903
:10030000BB89E889F9898C9185FD03C0808186FDD0
:100310000DC00FB607FCF7CF8C9185FFF2CF80811F
:1003200085FFEDCFCE010E940A01E9CFDF91CF9189
:10033000089590E0FC01E255FF4F2491FC01E65640
:10034000FF4F3491FC01EA57FF4FE491EE23C9F0CF
:10035000222339F0233001F1A8F4213019F12230A1
:1003600029F1F0E0EE0FFF1FEE58FF4FA591B49179
:100370008FB7F894EC91611126C030953E233C93E1
:100380008FBF08952730A9F02830C9F0243049F7ED
:10039000809180008F7D03C0809180008F77809353
:1003A0008000DFCF84B58F7784BDDBCF84B58F7DB0
:1003B000FBCF8091B0008F778093B000D2CF809137
:1003C000B0008F7DF9CF3E2BDACFCF93DF9390E053
:1003D000FC01E656FF4F24918A579F4FFC01849100
:1003E0008823D1F090E0880F991FFC01E859FF4F56
:1003F000A591B491FC01EE58FF4FC591D4916111C4
:100400000EC09FB7F8948C91E22FE0958E238C93C9
:100410002881E223E8839FBFDF91CF9108958FB7B2
:10042000F894EC91E22BEC938FBFF6CF3FB7F894A2
:100430008091430190914401A0914501B091460102
:1004400026B5A89B05C02F3F19F00196A11DB11D2F
:100450003FBFBA2FA92F982F8827BC01CD01620F6B
:10046000711D811D911D42E0660F771F881F991F26
:100470004A95D1F70895089590E080E00895CF93CC
:10048000DF93EC0160E08E810E94990161E08E8132
:100490000E94990160E08E810E9499018BE891E0B1
:1004A0000197F1F7DF91CF910895CF92DF92EF920C
:1004B000FF920F931F93CF93DF936C017C0187E032
:1004C000E80EF11CD0E0C0E0062F10E0B8010C2EC1
:1004D00002C0759567950A94E2F76170F701819102
:1004E0007F010E9499012196C430D10579F7C60198
:1004F000DF91CF911F910F91FF90EF90DF90CF9000
:100500000C943F02CF92DF92EF92FF920F931F93D2
:10051000CF93DF93EC01F62E642F8C810E9499011A
:100520008D818F3F19F060E00E9499010F2D10E03E
:100530008F8584FF25C06E0187E0C80ED11CF12C89
:10054000E12CB8010E2C02C0759567950A94E2F76C
:100550006170F60181916F010E949901FFEFEF1A1E
:10056000FF0A88E0E816F10461F7CE01DF91CF9130
:100570001F910F91FF90EF90DF90CF900C943F026E
:10058000B80184E0759567958A95E1F7CE010E94E0
:1005900055026F2DCE01DF91CF911F910F91FF90EA
:1005A000EF90DF90CF900C94550240E0682F8CEED6
:1005B00091E00C948202CF93DF93823029F49091E2
:1005C000FB0198609093FB018093FF011092000261
:1005D00080E48093010280E18093020280E58093B1
:1005E000030261E08091F0010E94E5018091F10138
:1005F0008F3F19F061E00E94E50161E08091F20116
:100600000E94E501CCEED1E09E012C5E314080914C
:10061000FB0184FD0BC084E090E021962817390788
:1006200044F461E08E810E94E501EECF88E090E025
:10063000F4CF8BE39DE00197F1F760E08091F0014A
:100640000E94990160E08091F2010E9499018091DD
:10065000F1018F3F19F060E00E9499018091FB0148
:1006600084FD39C063E08CEE91E00E945502CBE43A
:10067000D6E4CE010197F1F763E08CEE91E00E94A1
:1006800055022197F1F763E08CEE91E00E9455024C
:1006900083E592E00197F1F762E08CEE91E00E9431
:1006A00055028091FB0180620E94D50284E0809314
:1006B000FC018CE00E94D50281E00E94D5028BE310
:1006C0009FE10197F1F782E08093FD0186E0DF91E1
:1006D000CF910C94D50280620E94D5028BE496E4FF
:1006E0000197F1F78091FB0180620E94D50283E5BA
:1006F00092E00197F1F78091FB0180620E94D502A0
:10070000D0CF41E00E94820281E090E00895FB0199
:1007100001900020E9F73197AF01461B570BDC0130
:10072000ED91FC910280F381E02D09948F929F92CC
:10073000AF92BF92EF92FF920F931F93CF93DF93ED
:10074000CDB7DEB7A1970FB6F894DEBF0FBECDBF11
:100750007C01FA01CB0119A2223008F42AE08E01B3
:100760000F5D1F4F822E912CB12CA12CBF01A50132
:1007700094010E94310AF901CA016A300CF5605DEA
:10078000D8016E938D01232B242B252B79F790E034
:1007900080E0109721F0BD01C7010E948703A19658
:1007A0000FB6F894DEBF0FBECDBFDF91CF911F9182
:1007B0000F91FF90EF90BF90AF909F908F90089512
:1007C000695CDECF2F923F924F925F926F927F9241
:1007D0008F929F92AF92BF92CF92DF92EF92FF9251
:1007E0001F93CF93DF93EC016A017B01722EAB0163
:1007F0009601CB01B6010E942C0A6EE171E08111D5
:1008000026C046015701E894B7F82FEF3FEF4FE7B6
:100810005FE7C501B4010E942C0A81110CC02FEFC3
:100820003FEF4FE75FE7C501B4010E94620862E253
:1008300071E0181664F02FEF3FEF4FE75FE4C70158
:10084000B6010E94BA091816B4F466E271E0CE014E
:10085000DF91CF911F91FF90EF90DF90CF90BF90ED
:10086000AF909F908F907F906F905F904F903F9050
:100870002F900C9487032FEF3FEF4FE75FECC701FA
:10088000B6010E94620887FDE0CF20E030E0A901B8
:10089000C701B6010E946208312C212C87FF0DC0D0
:1008A000E881F9810190F081E02D6DE2CE0109959A
:1008B0001C01F7FAF094F7F8F09410E060E070E0B3
:1008C00080E09FE3711641F020E030E040E251E427
:1008D0000E9467081F5FF6CFA70196010E94F607E6
:1008E0002B013C010E94D9084B015C012AE0BC01AC
:1008F000A401CE010E9496037C01E20CF31C11239B
:10090000E1F1C501B4010E9408099B01AC01C301DA
:10091000B2010E94F5074B015C01E881F981019069
:10092000F081E02D6EE2CE010995E80EF91E11501E
:1009300020F120E030E040E251E4C501B4010E9422
:10094000BF092B013C010E94D9084B01B12CA12CFD
:100950002AE0B501A401CE010E949603E80EF91E1B
:10096000C501B4010E9408099B01AC01C301B20199
:100970000E94F5074B015C01DACFC701DF91CF91EF
:100980001F91FF90EF90DF90CF90BF90AF909F901E
:100990008F907F906F905F904F903F902F90089531
:1009A0001F920F920FB60F9211242F933F934F93E4
:1009B0005F936F937F938F939F93AF93BF93EF93C7
:1009C000FF938FE491E00E940A01FF91EF91BF91A4
:1009D000AF919F918F917F916F915F914F913F91D7
:1009E0002F910F900FBE0F901F9018951F920F928E
:1009F0000FB60F9211242F938F939F93EF93FF9332
:100A0000E0915F01F09160018081E0916501F091DA
:100A1000660182FD1BC09081809168018F5F8F739A
:100A200020916901821741F0E0916801F0E0E15BFB
:100A3000FE4F958F80936801FF91EF919F918F9169
:100A40002F910F900FBE0F901F9018958081F4CFBB
:100A50001F920F920FB60F9211242F933F938F93F3
:100A60009F93AF93BF9380913F0190914001A091DC
:100A70004101B091420130913E0123E0230F2D3717
:100A800058F50196A11DB11D20933E0180933F01B1
:100A900090934001A0934101B093420180914301A2
:100AA00090914401A0914501B09146010196A11D8C
:100AB000B11D8093430190934401A0934501B093ED
:100AC0004601BF91AF919F918F913F912F910F90D0
:100AD0000FBE0F901F90189526E8230F0296A11DB8
:100AE000B11DD2CFCF92DF92EF92FF920F931F935F
:100AF000E82FF92F05C0015011092109310961F1D1
:100B0000908196239417B9F305C00150110921096A
:100B1000310911F1908196239413F7CFC12CD12C78
:100B2000E12CF12C0AC08FEFC81AD80AE80AF80A9B
:100B30000C151D052E053F0579F08081862384174D
:100B400091F36C2D7D2D8E2D9F2D1F910F91FF9078
:100B5000EF90DF90CF90089560E070E080E090E04B
:100B60001F910F91FF90EF90DF90CF900895EFE4E9
:100B7000F1E01382128288EE93E0A0E0B0E084837B
:100B80009583A683B78384E091E09183808385EC8D
:100B900090E09587848784EC90E09787868780EC47
:100BA00090E0918B808B81EC90E0938B828B82EC38
:100BB00090E0958B848B86EC90E0978B868B118EE2
:100BC000128E138E148EECEEF1E01382128286E107
:100BD00091E09183808381E084838FEF858382E03D
:100BE000868384E0878385E0808786E0818787E04D
:100BF00082871386148615861686178681E00C94E4
:100C0000DB02789484B5826084BD84B5816084BD44
:100C100085B5826085BD85B5816085BD80916E009A
:100C2000816080936E0010928100809181008260CB
:100C30008093810080918100816080938100809108
:100C400080008160809380008091B10084608093F7
:100C5000B1008091B00081608093B00080917A00F3
:100C6000846080937A0080917A00826080937A0019
:100C700080917A00816080937A0080917A00806808
:100C800080937A001092C10061E089E00E94E50142
:100C900060E08AE00E94E50161E08CE00E94E501ED
:100CA00060E08CE00E94990161E088E00E94E5012B
:100CB00060E088E00E94990161E08BE00E94E5011C
:100CC00060E08BE00E949901E0915F01F09160018A
:100CD00082E08083E0915B01F0915C011082E09101
:100CE0005D01F0915E018FEC808310926701E091CD
:100CF0006301F091640186E08083E0916101F091ED
:100D00006201808180618083E0916101F0916201E4
:100D1000808188608083E0916101F091620180812F
:100D200080688083E0916101F091620180818F7D14
:100D3000808382E00E94DB0223E0222E312C34E605
:100D4000E32EF12CC4E64BE3C42E4FE1D42E60E039
:100D500089E00E949901C1010197F1F761E089E002
:100D60000E94990183E290E00197F1F760E089E049
:100D70000E949901E4EAF0E06491E0E9F0E08491F6
:100D8000E82FF0E0EE0FFF1FE458FF4F859194919C
:100D900000E412E42FE030E0462F0E947205611556
:100DA00071058105910529F06F5F7F4F8F4F9F4F30
:100DB0009F700E94080960934B0170934C018093CF
:100DC0004D0190934E0128E23EE74CE05DE30E9426
:100DD000BF0920E030E040E05FE30E94BF09AB01C3
:100DE000BC014093470150934801609349017093BF
:100DF0004A0122E08FE491E00E94E2036AE271E09E
:100E00008FE491E00E94870320E030E048EC51E459
:100E100060914701709148018091490190914A0188
:100E20000E94620818160CF4D1C061E08CE00E94A8
:100E3000990160E088E00E94990161E08BE00E94E6
:100E4000E501E9EBF0E08491833009F4A5C050F4AA
:100E50008130D1F0823009F49AC060E08BE00E94CA
:100E6000990116C0873009F4A1C0883009F4A6C0E2
:100E7000843099F780918000806280938000F092A6
:100E80008B00E0928A0004C084B5806884BDC7BD31
:100E900081E00E94D502C6010197F1F7E1E080915F
:100EA000FF018111E0E0E195F0E0E451FE4F84891B
:100EB00080680E94D5026DE271E08FE491E00E94AB
:100EC0008703409147015091480160914901709119
:100ED0004A0122E08FE491E00E94E2036AE271E0BD
:100EE0008FE491E00E9487036DE271E08CEE91E067
:100EF0000E948703E091FF01E23008F074C0E150E6
:100F0000F0E0E451FE4F84898B5F80680E94D50237
:100F100040914701509148016091490170914A0107
:100F200022E08CEE91E00E94E2030E9416024B0147
:100F30005C0188EE482E83E0582E612C712C0E94B3
:100F40001602681979098A099B09683E7340810570
:100F50009105A8F3F1E04F1A51086108710828EED5
:100F6000820E23E0921EA11CB11C411451046104A5
:100F7000710429F780E090E0892B09F4E8CE0E9403
:100F8000F600882309F4E3CE0E940000E0CE84B589
:100F9000806284BDC8BD7CCF8091800080688093D2
:100FA0008000F0928900E092880072CF8091B000BA
:100FB00080688093B000C093B3006ACF8091B00086
:100FC00080628093B000C093B40062CF60E08CE098
:100FD0000E94990161E088E00E94990161E08BE044
:100FE0000E94E5013ACFE1E08BCF5058BB27AA27FA
:100FF0000E940D080C9480090E94720938F00E942A
:10100000790920F039F49F3F19F426F40C946F0904
:101010000EF4E095E7FB0C946909E92F0E94910911
:1010200058F3BA17620773078407950720F079F41D
:10103000A6F50C94B3090EF4E0950B2EBA2FA02D53
:101040000B01B90190010C01CA01A0011124FF2775
:10105000591B99F0593F50F4503E68F11A16F04070
:10106000A22F232F342F4427585FF3CF469537956F
:101070002795A795F0405395C9F77EF41F16BA0B34
:10108000620B730B840BBAF09150A1F0FF0FBB1FE2
:10109000661F771F881FC2F70EC0BA0F621F731F2B
:1010A000841F48F4879577956795B795F7959E3F88
:1010B00008F0B0CF9395880F08F09927EE0F979519
:1010C000879508950E94450908F481E008950E94DB
:1010D0007B080C9480090E94790958F00E947209DB
:1010E00040F029F45F3F29F00C94690951110C94E8
:1010F000B4090C946F090E94910968F39923B1F324
:10110000552391F3951B550BBB27AA27621773072D
:10111000840738F09F5F5F4F220F331F441FAA1FC1
:10112000A9F335D00E2E3AF0E0E832D0915050407D
:10113000E695001CCAF72BD0FE2F29D0660F771F2B
:10114000881FBB1F261737074807AB07B0E809F011
:10115000BB0B802DBF01FF2793585F4F3AF09E3F96
:10116000510578F00C9469090C94B4095F3FE4F3DD
:10117000983ED4F3869577956795B795F7959F5FD9
:10118000C9F7880F911D9695879597F90895E1E025
:10119000660F771F881FBB1F621773078407BA0784
:1011A00020F0621B730B840BBA0BEE1F88F7E095DF
:1011B00008950E94990988F09F5798F0B92F9927B0
:1011C000B751B0F0E1F0660F771F881F991F1AF032
:1011D000BA95C9F714C0B13091F00E94B309B1E0DB
:1011E00008950C94B309672F782F8827B85F39F0DA
:1011F000B93FCCF3869577956795B395D9F73EF4CB
:1012000090958095709561957F4F8F4F9F4F089572
:10121000E89409C097FB3EF4909580957095619590
:101220007F4F8F4F9F4F9923A9F0F92F96E9BB2746
:101230009395F695879577956795B795F111F8CFC2
:10124000FAF4BB0F11F460FF1BC06F5F7F4F8F4F2D
:101250009F4F16C0882311F096E911C0772321F023
:101260009EE8872F762F05C0662371F096E8862FBB
:1012700070E060E02AF09A95660F771F881FDAF712
:10128000880F9695879597F90895990F0008550F3F
:10129000AA0BE0E8FEEF16161706E807F907C0F0FC
:1012A00012161306E407F50798F0621B730B840B04
:1012B000950B39F40A2661F0232B242B252B21F4DE
:1012C00008950A2609F4A140A6958FEF811D811D7E
:1012D000089597F99F6780E870E060E008959FEFB8
:1012E00080EC089500240A941616170618060906BD
:1012F000089500240A94121613061406050608958C
:10130000092E0394000C11F4882352F0BB0F40F413
:10131000BF2B11F460FF04C06F5F7F4F8F4F9F4F53
:10132000089557FD9058440F551F59F05F3F71F0D5
:101330004795880F97FB991F61F09F3F79F087953C
:101340000895121613061406551FF2CF4695F1DFC5
:1013500008C0161617061806991FF1CF8695710555
:10136000610508940895E894BB2766277727CB0189
:1013700097F908950E94450908F48FEF08950E9497
:10138000D2090C9480090E94720938F00E947909F0
:1013900020F0952311F00C9469090C946F09112425
:1013A0000C94B4090E94910970F3959FC1F3950FB5
:1013B00050E0551F629FF001729FBB27F00DB11DD9
:1013C000639FAA27F00DB11DAA1F649F6627B00D69
:1013D000A11D661F829F2227B00DA11D621F739F52
:1013E000B00DA11D621F839FA00D611D221F749F60
:1013F0003327A00D611D231F849F600D211D822FA7
:10140000762F6A2F11249F5750409AF0F1F08823CD
:101410004AF0EE0FFF1FBB1F661F771F881F9150FA
:101420005040A9F79E3F510580F00C9469090C9437
:10143000B4095F3FE4F3983ED4F3869577956795BA
:10144000B795F795E7959F5FC1F7FE2B880F911D24
:101450009695879597F908950E944509880B990BF1
:101460000895A1E21A2EAA1BBB1BFD010DC0AA1FE5
:10147000BB1FEE1FFF1FA217B307E407F50720F0FD
:10148000A21BB30BE40BF50B661F771F881F991F78
:101490001A9469F760957095809590959B01AC01C1
:1014A000BD01CF010895EE0FFF1F0590F491E02DCF
:0614B0000994F894FFCF3F
:1014B600000000002C018C00B9007901EA00C80088
:1014C600DC000000000081038C003C023B026E61E0
:1014D6006E00696E66006F7666000D0A00446973D9
:0E14E60074616E636520696E20436D3A2000CC
:00000001FF
